:020000040800F2
:10000000A008002005010008593000089F250008BD
:1000100055300008BD090008F9360008000000004E
:100020000000000000000000000000001D32000879
:10003000C1090008000000005D3000081F32000800
:100040001F0100081F0100081F0100081F01000810
:100050001F0100081F0100081F0100081F01000800
:100060001F0100081F0100081F0100081F010008F0
:100070001F0100081F0100081F0100081F010008E0
:100080001F0100081F0100081F0100081F010008D0
:100090001F0100081F0100081F010008CF09000808
:1000A0001F0100081F0100081F0100081F010008B0
:1000B0001F0100081F0100081F0100081F010008A0
:1000C0001F0100081F0100081F0100081F01000890
:1000D0001F0100081F0100081F0100081F01000880
:1000E000C30900081F0100081F010008DFF810D035
:1000F00000F052FC0048004781610008AFF3008027
:10010000A00800200648804706480047FEE7FEE7B3
:10011000FEE7FEE7FEE7FEE7FEE7FEE7FEE7FEE7B7
:100120008D320008ED000008202A04DB203A21FA75
:1001300002F00021704721FA02F3D040C2F1200200
:10014000914008431946704740EA01039B0703D0DA
:1001500009E008C9121F08C0042AFAD203E011F806
:10016000013B00F8013B521EF9D27047D2B201E0C8
:1001700000F8012B491EFBD270470022F6E710B5AC
:1001800013460A4604461946FFF7F0FF204610BD05
:100190000022CBB20178994200D10246401C0029CE
:1001A000F8D110467047F0B480EA0102D40F420043
:1001B000B2EB410F02D20246084611464A0042D035
:1001C000C30DDDB2C1F3C752AD1A202D35DAC1F32C
:1001D000160141F4000204B15242C5F1200602FAB0
:1001E00006F12A411044B3EBD05F23D0C4B1012DF6
:1001F000A0EBC35009DCF0BC4FF0004202EAC3524E
:10020000DBB200F5000000F0D7BA400000F18070CA
:1002100000EBC350A0F1807040EAD170490009E0C2
:10022000490841EAC071A0EBC35000F50000400846
:1002300000EBC350F0BC00F0B6BA6142012202EB01
:100240004101001BF6E7F0BC704781F00041AAE7CE
:1002500080F00040A7E780EA010210B502F00043F9
:10026000400022D04A001FD0010E01EB1261C0F302
:100270005600C2F3560240F4000042F40002A0FB14
:10028000022000047F39140400D0401C50EA1240C0
:1002900001D44000491EC2B20C0604EBD010401C31
:1002A0004008802A02D003E0002010BD20F00100A9
:1002B000002900DA0020184310BD30B480EA0102A2
:1002C00002F0004530F0004221F0004013D090B120
:1002D000C30DD40DC2F31601C0F31600E41A41F4A5
:1002E000000140F400027D34914201D3641C00E01F
:1002F0004900002C02DA30BC002070474FF40000A7
:100300000023914201D3891A034340084FEA410177
:10031000F7D151B1914202D14FF0004105E002D234
:100320004FF0010101E06FF0010103EBC4502844DC
:1003300030BC00F038BA2DE9FE4F804681EA030058
:10034000C00F0C46009021F0004123F00045B8EBAF
:100350000200A94105D24046214690461C460B4664
:10036000024623F00040104347D0270DC7F30A0090
:10037000C3F30A510290401A019040286BDAC3F38C
:10038000130040F4801B0098924620B10023D2EB6A
:10039000030A63EB0B0B01985946C0F1400250462B
:1003A00000F0E0F906460D4650465946019A00F025
:1003B000E8F910EB08006141002487EA115284EA51
:1003C000E7731A4340D0009A62B3019A012A4FEAB8
:1003D000075215DC001B61EB02014FF0004202EAFC
:1003E0000752CDE90042001C41F5801132462B46F0
:1003F00000F02BFA03B0BDE8F08F40462146F9E744
:10040000001B61EB0201001C41F5801300185B41E9
:100410002018A2F5001747EB030140EAD570B61982
:100420006D4111E06D084FEA360645EAC0754FEAA6
:100430000752001B61EB0201001C41F580114908C5
:100440004FEA30000019514132462B4603B0BDE857
:10045000F04F00F0EBB90098012240000023D0EBF0
:10046000020263EBE073009821464FEAE074B8EBB8
:10047000000061EB0401E9E783F000435BE781F0F2
:10048000004158E72DE9FE4F81EA030404F00044DF
:1004900021F0004100944FF0000B23F0004350EA9C
:1004A00001045ED052EA03045BD0C3F30A54C1F3E3
:1004B0000A552C44A4F2F3340194A0FB0254C1F376
:1004C000130141F48011C3F3130343F4801301FBC0
:1004D000024400FB034E840A970A44EA815447EA27
:1004E0008357A4FB076802958D0A05FB07854FEA31
:1004F000932C04FB0C542705029D4FEA065847EA4B
:100500001637B5EB08056EEB070C870E920E47EA1F
:10051000811742EA8312A7FB0201B6EB0B0164EBE1
:1005200000042B0D43EA0C335E1844EB1C50DA46F2
:100530005146E7FB0201C5F313044FEA0B3343EACC
:1005400014534FEA0432019C43EA0603A4F10C045D
:100550000294009CCDE900B400F077F903B0BDE847
:10056000F08F00200146F9E72DE9F04D81EA030400
:1005700004F0004B21F0004514464FF0000A23F030
:10058000004150EA050220D054EA01021DD0C5F313
:100590000A570246C5F31303C1F31300C1F30A5609
:1005A00040F4801543F48013A7EB0608101BD646D1
:1005B00008F2FD3873EB050002D308F1010801E0F1
:1005C00092185B41B8F1000F03DA00200146BDE844
:1005D000F08D00204FF48011064684460EE0171B74
:1005E00073EB050705D3121B63EB050306434CEAC7
:1005F000010C49084FEA300092185B4150EA0107AC
:10060000EDD152EA030012D082EA040083EA050128
:10061000084305D0101BAB4106D20122002306E09F
:1006200000224FF0004302E06FF0010253101AEB7A
:1006300006004CEB085110EB0A0041EB0B01BDE842
:10064000F04D00F0F3B8C10F80EAE0700844CA072B
:100650009623002100F0B0B896230022114600F046
:10066000ABB80EB540F2334102910021CDE9001143
:100670000A460B4600F0E9F803B000BD20F0004048
:10068000C10DC0F3160040F400007F2901DA0020FC
:100690007047962903DCC1F19601C840704796392E
:1006A00088407047C1F30A5210B5C1F3130140F2FC
:1006B000FF3341F480119A4201DA002010BD40F26C
:1006C00033439A42A2F2334203DC5242FFF72CFD3D
:1006D00010BD904010BD30B50B46014600202022D1
:1006E000012409E021FA02F59D4205D303FA02F53F
:1006F000491B04FA02F52844151EA2F10102F1DC9F
:1007000030BD2DE9F05F0546002092469B468846A5
:100710000646814640241BE028464146474622467D
:10072000FFF702FD53465A46C01A914110D31146B5
:100730001846224600F016F82D1A67EB01084F46BE
:1007400022460120002100F00DF817EB00094E4170
:10075000201EA4F10104DFDC484631462A46434608
:10076000BDE8F09F202A04DB203A00FA02F10020C5
:1007700070479140C2F1200320FA03F319439040DF
:100780007047202A06DBCB17203A41FA02F043EAF1
:10079000E07306E041FA02F3D040C2F1200291403A
:1007A0000843194670470029A8BF7047401C4900FC
:1007B00008BF20F00100704710B4B0FA80FC00FAC6
:1007C0000CF050EA010404BF10BC704749B1CCF1F1
:1007D000200421FA04F411FA0CF118BF012121437D
:1007E0000843A3EB0C01CB1D4FEA00614FEA102038
:1007F00042BF002010BC704700EBC35010440029DA
:10080000A4BF10BC7047401C490008BF20F0010085
:1008100010BC7047420005D0C0F3C752524291420B
:1008200001DC0020704700EBC150704710B5141E6A
:1008300073F1000408DA401C41F1000192185B4199
:100840001A4301D120F0010010BD2DE9F04D924670
:100850009B4611B1B1FA81F202E0B0FA80F2203287
:100860009046FFF77FFF04460F4640EA0A0041EA40
:100870000B0153465A46084313D0114653EA010070
:1008800019D0C8F140025046FFF74EFC05460E460F
:10089000504659464246FFF765FF084305D0012000
:1008A00004E020463946BDE8F08D0020054346EAC5
:1008B000E0762C4337430A986305E40AA0EB08006E
:1008C0000022FD0A44EA47540A3002D500200146BE
:1008D000E9E7010510196941DDE908450019694199
:1008E000BDE8F04DA2E7C1F30A52C1F3130140F293
:1008F000FF3341F480119A4202DA0020014670472A
:1009000040F233439A42A2F2334202DC5242FFF7F2
:100910000BBCFFF727BF10B500F0004420F00040EB
:10092000C20DC0F3160040F400007F2A07DA7D2ACA
:1009300000DA7D22763A00FA02F1002008E0962AD9
:1009400009DCA2F1760100FA01F1C2F19602D04071
:10095000FFF729FF01E0963A9040002C00D040427A
:1009600010BD000030B5041E71F1000404DB4FF02F
:100970000044404264EB0101141E73F1000405DBE6
:100980001C464FF00043524263EB0403994208BFF8
:10099000904230BD00207047064C074D06E0E068ED
:1009A00040F0010394E8070098471034AC42F6D3B6
:1009B000FFF7A0FBF4690008146A000800BFFEE717
:1009C000704710B54FF4805000F020F810BD10B5FE
:1009D0004FF4007000F01AF810BD72B600BFFEE7C9
:1009E00070B5044600F0BEF906462546681C10B1F5
:1009F00004480078054400BF00F0B4F9801BA84209
:100A0000FAD370BD080000207047000010B50446FE
:100A100004480068204020B1024804602046FFF7E7
:100A2000F3FF10BD140401402DE9F84703460022EE
:100A300094466EE14FF0010808FA02F4D1F8008004
:100A400008EA0400A0427DD1DFF8DCA2D1F80480DE
:100A5000A8EB0A09D0453AD014DCB8F1030F50D006
:100A600009DCB8F1000F31D0B8F1010F1CD0B8F19A
:100A7000020F49D120E0B8F1110F18D0B8F1120FD0
:100A800042D11EE0B9F5881F25D006DCB9F5803FBC
:100A900020D0B9F5801F37D11AE0B9F5001F18D062
:100AA000B9F5041F30D117E0D1F80CC02DE0D1F812
:100AB0000C8008F1040C28E0D1F80C8008F1080C37
:100AC00023E0D1F80C8008F10C0C1EE000BF00BF41
:100AD00000BF00BF00BF00BFD1F80880B8F1000F11
:100AE00002D14FF0040C0BE0D1F80880B8F1010FEF
:100AF00003D14FF0080C1C6102E04FF0080C5C6160
:100B000003E04FF0000C00E000BF00BFFF2801D859
:100B1000984601E003F104084646FF2802D84FEA50
:100B2000820803E0A2F108084FEA88084746D6F891
:100B300000804FF00F0909FA07F928EA09080CFAB2
:100B400007F900E088E048EA0908C6F80080D1F813
:100B5000048008F08058B8F1805F7DD100BFDFF8D5
:100B6000CC81D8F8188048F00108DFF8C091C9F8A6
:100B70001880C846D8F8188008F00108CDF8008021
:100B800000BF00BF4FEAB9384FEA920958F8295020
:100B90004FEA82784FEA18794FF00F0808FA09F8FF
:100BA00025EA0805DFF88881434502D14FF00008A7
:100BB00016E0DFF88081434502D14FF001080FE0D5
:100BC000DFF87481434502D14FF0020808E0DFF8F6
:100BD0006C81434502D14FF0030801E04FF0040857
:100BE0004FEA82794FEA197908FA09F848EA0505C7
:100BF000DFF84C814FEA920948F82950D1F8048077
:100C000008F48018B8F5801F0AD1DFF83881D8F8C9
:100C1000008048EA0008DFF82C91C9F8008009E05C
:100C2000DFF82081D8F8008028EA0008DFF8149166
:100C3000C9F80080D1F8048008F40018B8F5001F46
:100C400010D1DFF8008108F10408D8F8008048EAE4
:100C50000008DFF8F09000E05AE009F10409C9F853
:100C600000800DE0DFF8DC8008F10408D8F800808F
:100C700028EA0008DFF8CC9009F10409C9F80080DF
:100C8000D1F8048008F40038B8F5003F0ED1DFF841
:100C9000B480A8F10408D8F8008048EA0008DFF81A
:100CA000A490A9F10409C9F800800DE0DFF8948050
:100CB000A8F10408D8F8008028EA0008DFF884903A
:100CC000A9F10409C9F80080D1F8048008F480383B
:100CD000B8F5803F0ED1DFF86C80A8F10808D8F88D
:100CE000008048EA0008DFF85C90A9F10809C9F81B
:100CF00000800DE0DFF84C80A8F10808D8F80080EB
:100D000028EA0008DFF83C90A9F10809C9F800803A
:100D1000521CD1F8008028FA02F8B8F1000F7FF4D5
:100D200089AEBDE8F88700000000111000100240F5
:100D300000080140000C0140001001400014014077
:100D40000800014008040140024693680B400BB1C3
:100D5000012000E0002070470AB1016101E00B04AE
:100D600003617047014800687047000000000020E0
:100D700070B504460CB9012070BD94F83D0028B947
:100D8000002084F83C00204600F0DAF8242084F8A3
:100D90003D002068006820F001002168086020689C
:100DA000006840F40040216808602068006820F472
:100DB00000402168086000F09BFA05465C496068C5
:100DC000884206D85B48854201D2012007E0002016
:100DD00005E05948854201D2012000E000200128A9
:100DE00000D1C9E75548B5FBF0F62068406820F00F
:100DF0003F003043216848604D496068884201D80F
:100E0000701C07E04FF4967070434FF47A71B0FB9A
:100E1000F1F0401C2168096A21F03F010843216874
:100E2000086243496068884214D8681E61684900B6
:100E3000B0FBF1F0401CC0F30B00042801D20420E9
:100E40003DE0681E61684900B0FBF1F0401CC0F352
:100E50000B0034E0A06838B9681E616801EB4101FD
:100E6000B0FBF1F0401C0AE0681E616801EBC102B2
:100E700002EB0111B0FBF1F0401C40F48040C0F3E4
:100E80000B0008B901201AE0A06848B9681E616823
:100E900001EB4101B0FBF1F0401CC0F30B000CE092
:100EA000681E616801EBC10202EB0111B0FBF1F0B9
:100EB000401CC0F30B0040F4804040F40040216827
:100EC000C9694CF6FF72914308432168C861D4E9AF
:100ED000070108432168096821F0C001084321681F
:100EE0000860D4E9031008432168896848F2FF329A
:100EF0009143084321688860D4E9050108432168CB
:100F0000C96821F0FF0108432168C86020680068B3
:100F100040F001002168086000202064202084F84F
:100F20003D000020206384F83E0000BF24E700005D
:100F3000A086010080841E0000093D0040420F0091
:100F400010B586B0044600200290039004900590EE
:100F500015492068884225D100BF1448806940F0B7
:100F60000800124988610846806900F00800019075
:100F700000BF00BFC0200290122003900320059004
:100F800002A90B48FFF750FD00BF0848C06940F4B4
:100F900000100649C8610846C06900F400100190BD
:100FA00000BF00BF06B010BD00540040001002405A
:100FB000000C0140034800680349097808440149CE
:100FC00008607047000000200800002010B50848A5
:100FD000006840F0100006490860032000F0A8F8FF
:100FE0000F2000F007F800F02BF8002010BD0000E3
:100FF0000020024070B504460E4800784FF47A7124
:10100000B1FBF0F00C490968B1FBF0F5284600F09F
:101010005FFF08B1012070BD102C07D200222146CD
:10102000501E00F047F80548046001E00120F2E797
:101030000020F0E7080000200C0000200400002041
:1010400008B500BF1148806940F001000F49886170
:101050000846806900F00100009000BF00BF00BF9B
:101060000846C06940F08050C8610846C06900F079
:101070008050009000BF00BF00BF0549486820F0C5
:10108000E06040F00070486000BF08BD0010024002
:101090000000014001460846002809DB00F01F035C
:1010A00001229A4043099B0003F1E023C3F8002189
:1010B00000BF70472DE9F05F80460D4616460027B9
:1010C00002F048FB074639462A46334601F007003E
:1010D000C0F1070ABAF1040F02D94FF0040A01E087
:1010E000C0F1070AD14600F1040ABAF1070F02D293
:1010F0004FF0000A01E0A0F1030AD4464FF0010AC4
:101100000AFA09FAAAF1010A0AEA020A0AFA0CFA28
:101110004FF0010B0BFA0CFBABF1010B0BEA030BCD
:101120004AEA0B042146404602F01CFBBDE8F09F52
:1011300000BF00F00702064B19684FF6FF03194085
:10114000044B0B4343EA0221014B196000BF704777
:101150000CED00E00000FA0570B504460D460CB930
:10116000012070BD5A48006800F00700A8420ED266
:101170005748006820F00700284355490860084692
:10118000006800F00700A84201D00120E9E72078BC
:1011900000F0020002281DD1207800F0040004288D
:1011A00005D14C48406840F4E0604A4948602078E6
:1011B00000F00800082805D14648406840F4605017
:1011C000444948604348406820F0F000A168084363
:1011D00040494860207800F0010078B36068012839
:1011E00006D13C48006800F4003090B90120B8E70F
:1011F0006068022806D13748006800F0007040B9E6
:101200000120AEE73348006800F0020008B9012071
:10121000A7E73048406820F00300616808432D4983
:101220004860FFF79FFD064609E0FFF79BFD801B26
:1012300041F28831884202D9032092E707E025482D
:10124000406800F00C006168B0EB810FEDD12048E0
:10125000006800F00700A8420ED91D48006820F081
:10126000070028431A4908600846006800F0070094
:10127000A84201D0012074E7207800F0040004287F
:1012800007D11448406820F4E060E1680843114940
:101290004860207800F00800082808D10D48406810
:1012A00020F46050216940EAC1000A49486000F01A
:1012B0003FF808494968C1F30311074A515CC84027
:1012C0000649086006480068FFF794FE002048E7DA
:1012D00000200240001002409A6800080C00002024
:1012E0000400002001480068704700000C00002046
:1012F00000B5FFF7F7FF04494968C1F30221034A2B
:10130000515CC84000BD000000100240AA680008FF
:1013100000B5FFF7E7FF04494968C1F3C221034A5A
:10132000515CC84000BD000000100240AA680008DF
:1013300070B500210022002400230020134D6968AD
:1013400001F00C05F5B1042D02D0082D19D101E0F2
:101350000F4819E00F4DC1F38346AB5D01F48035B2
:1013600055B10A4D6D68C5F340450B4E725D084D91
:101370005D43B5FBF2F402E0084D03FB05F42046A3
:1013800002E000BF024800BF00BF70BD0010024075
:1013900000127A00886800089868000800093D007B
:1013A000F8B504460CB90120F8BD207800F0010022
:1013B000002878D0F848406800F00C0004280CD0D1
:1013C000F548406800F00C00082811D1F248406848
:1013D00000F48030B0F5803F0AD1EF48006800F497
:1013E000003000285FD0606800285CD10120DBE776
:1013F00000BF6068B0F5803F06D1E748006840F460
:101400008030E549086028E0606858B9E248006823
:1014100020F48030E04908600846006820F480200D
:1014200008601AE06068B0F5A02F0BD1DA480068B8
:1014300040F48020D84908600846006840F48030B5
:1014400008600AE0D448006820F48030D24908607F
:101450000846006820F48020086000BF606888B1FA
:10146000FFF780FC054606E0FFF77CFC401B642884
:1014700001D9032098E7C848006800F4003000282C
:10148000F2D010E0FFF76EFC054606E0FFF76AFCBD
:10149000401B642801D9032086E7BF48006800F498
:1014A00000300028F2D1207800F00200022857D145
:1014B000B948406800F00C0050B1B748406800F0EF
:1014C0000C00082818D1B448406800F4803098B95E
:1014D000B148006800F0020020B12069012801D065
:1014E000012061E7AC48006820F0F800616940EA3B
:1014F000C100A949086033E02069E8B10120A7498B
:101500000860FFF72FFC054606E0FFF72BFC401BA9
:10151000022801D9032047E79F48006800F0020035
:101520000028F2D09C48006820F0F800616940EA89
:10153000C1009949086013E0002098490860FFF74E
:1015400011FC054606E0FFF70DFC401B022801D9FF
:10155000032029E79048006800F002000028F2D13B
:10156000207800F0080008282DD1A069B8B101202A
:101570008B490860FFF7F6FB054606E0FFF7F2FB34
:10158000401B022801D903200EE78348406A00F07F
:1015900002000028F2D0012001F062FD13E00020DB
:1015A0007F490860FFF7DEFB054606E0FFF7DAFB40
:1015B000401B022801D90320F6E67748406A00F074
:1015C00002000028F2D1207800F00400042873D132
:1015D00000277148C06900F0805070B900BF6E48A4
:1015E000C06940F080506C49C8610846C06900F08D
:1015F0008050009000BF00BF01276A48006800F4D7
:101600008070B0B96748006840F480706549086030
:10161000FFF7A8FB054606E0FFF7A4FB401B642884
:1016200001D90320C0E65F48006800F480700028FC
:10163000F2D000BFE068012806D15748006A40F0A8
:1016400001005549086227E0E06858B95248006A2D
:1016500020F00100504908620846006A20F00400AA
:10166000086219E0E06805280BD14B48006A40F099
:101670000400494908620846006A40F00100086217
:101680000AE04548006A20F0010043490862084624
:10169000006A20F00400086200BFE068A0B1FFF714
:1016A00061FB054609E0FFF75DFB401B41F2883115
:1016B000884202D9032077E622E03748006A00F02A
:1016C00002000028EFD012E0FFF74CFB054608E0CF
:1016D000FFF748FB401B41F28831884201D90320C3
:1016E00062E62D48006A00F002000028F0D1012FC8
:1016F00005D12948C06920F080502749C86100BF42
:10170000E069C8B32448406800F00C00082860D0A5
:10171000E069022848D1002020490866FFF722FB33
:10172000054606E0FFF71EFB401B022801D90320F7
:101730003AE61948006800F000700028F2D1206AEB
:10174000B0F5803F07D11448406820F40030A1680C
:10175000084311494860D4E9080108430E49496823
:1017600021F4741108430C49486001200B490866B4
:10177000FFF7F8FA054607E03DE0FFF7F3FA401BF4
:10178000022801D903200FE60348006800F000702A
:101790000028F2D02FE0000000100240000042427A
:1017A0008004424200700040002014490866FFF7A0
:1017B000D9FA054606E0FFF7D5FA401B022801D901
:1017C0000320F1E50E48006800F000700028F2D117
:1017D00011E0E069012800D1E6E50948466806F411
:1017E0008031206A814204D106F47011606A81421E
:1017F00001D00120D8E50020D6E5000000004242DB
:101800000010024010B504460CB9012010BD606AFA
:1018100038B96068B0F5827F00D105E00021E16150
:1018200002E00021216161610021A16294F8510070
:1018300028B9002084F85000204600F043F8022028
:1018400084F851002068006820F04000216808609A
:10185000A08800F48270218901F404410843A18921
:1018600001F400610843217C01F002010843217D5D
:1018700001F001010843218B01F400710843217F2D
:1018800001F0380108432021095D01F0800108437F
:10189000218D01F400510843216808600421A069EA
:1018A00001EA1040216848602068C06920F40060A7
:1018B0002168C86100206065012084F85100002083
:1018C000A4E7000010B586B0044600200290039003
:1018D000049005901949206888422DD100BF18480E
:1018E000806940F48050164988610846806900F498
:1018F0008050019000BF00BF00BF0846806940F0E3
:10190000040088610846806900F00400019000BF6F
:1019100000BFA0200290022003900320059002A99E
:101920000848FFF781F840200290002003900490BF
:1019300002A90448FFF778F806B010BD0030014056
:1019400000100240000801402DE9F8430446884693
:1019500016461D4694F85100012802D00220BDE829
:10196000F8836068B0F5827F0CD1A06850B904207C
:1019700084F851003346424641462046009500F027
:1019800083F9ECE7FFF7EEF90746B8F1000F00D056
:101990000EB90120E3E700BF94F85000012801D1FF
:1019A0000220DCE7012084F8500000BF042084F806
:1019B000510000206065C4F83880A687E687206360
:1019C000A086E08620646064A068B0F5004F0BD16B
:1019D0002068006820F040002168086020680068E6
:1019E00020F48040216808602068006800F0400012
:1019F000402805D02068006840F040002168086059
:101A0000E06830BB21E02068806800F0010050B140
:101A10002068007BA16B0870A06B401CA063E08F66
:101A2000401EE08711E0FFF79DF9C01BA84201D3DB
:101A3000681C00B94DB9012084F8510000BF002096
:101A400084F8500000BF032089E7E08F0028DAD136
:101A500025E021E02068806800F0010050B1206896
:101A6000C068A16B0880A06B801CA063E08F401E43
:101A7000E08711E0FFF776F9C01BA84201D3681C8C
:101A800000B94DB9012084F8510000BF002084F84E
:101A9000500000BF032062E7E08F0028DAD13A4609
:101AA0002946204601F0F0FA08B1202060650120A7
:101AB00084F8510000BF002084F8500000BF606D22
:101AC00008B101204BE7002049E72DE9F84304461F
:101AD0000F4616461D46FFF745F98046B14694F875
:101AE0005100012802D00220BDE8F88307B10EB9E9
:101AF0000120F9E700BF94F85000012801D102202D
:101B0000F2E7012084F8500000BF032084F8510060
:101B1000002060652763A686E686A063A087E0872D
:101B200060642064A068B0F5004F0BD120680068A5
:101B300020F04000216808602068006840F4804080
:101B4000216808602068006800F04000402805D047
:101B50002068006840F0400021680860E068B0F547
:101B6000006F37D1606810B1B9F1010F09D1206B56
:101B700000882168C860206B801C2063E08E401EB6
:101B8000E08623E02068806800F0020002280AD185
:101B9000206B00882168C860206B801C2063E08E69
:101BA000401EE08612E0FFF7DDF8A0EB0800A84237
:101BB00001D3681C00B94DB9012084F8510000BF61
:101BC000002084F8500000BF03208DE7E08E00283D
:101BD000D8D136E0606810B1B9F1010F09D1206B9E
:101BE000007821680873206B401C2063E08E401E43
:101BF000E08623E02068806800F0020002280AD115
:101C0000206B007821680873206B401C2063E08EF5
:101C1000401EE08612E0FFF7A5F8A0EB0800A842FE
:101C200001D3681C00B94DB9012084F8510000BFF0
:101C3000002084F8500000BF032055E7E08E002804
:101C4000D8D142462946204601F05AFA08B1202050
:101C50006065A06850B900BF002000902068C0688F
:101C6000009020688068009000BF00BF012084F8C9
:101C7000510000BF002084F8500000BF606D08B123
:101C8000012031E700202FE72DE9FE4F04460F46E3
:101C900090461D460C9E01200190FFF763F8814697
:101CA00094F851B060680290AA46BBF1010F0BD0C6
:101CB0000298B0F5827F04D1A06810B9BBF1040F7F
:101CC00002D00220BDE8FE8F1FB1B8F1000F00D096
:101CD0000DB90120F6E700BF94F85000012801D1AA
:101CE0000220EFE7012084F8500000BF94F8510073
:101CF000042802D0052084F8510000206065C4F853
:101D00003880E587A5872763E586A586206460641B
:101D10002068006800F04000402805D02068006876
:101D200040F0400021680860E068B0F5006F52D1D3
:101D3000606810B1BAF1010F09D1206B00882168E9
:101D4000C860206B801C2063E08E401EE0863BE074
:101D50002068806800F00200022810D1E08E70B187
:101D6000019801280BD1206B00882168C860206B86
:101D7000801C2063E08E401EE086002001902068D9
:101D8000806800F0010068B1E08F58B12068C06839
:101D9000A16B0880A06B801CA063E08F401EE087D1
:101DA00001200190FEF7DEFFA0EB0900B0420BD34B
:101DB000701C48B1012084F8510000BF002084F855
:101DC000500000BF03207DE7E08E0028C0D1E08FE7
:101DD0000028BDD152E0606810B1BAF1010F09D1FD
:101DE000206B007821680873206B401C2063E08E14
:101DF000401EE0863CE02068806800F00200022877
:101E000010D1E08E70B1019801280BD1206B0078C1
:101E100021680873206B401C2063E08E401EE08622
:101E2000002001902068806800F0010068B1E08F18
:101E300058B12068C068A16B0870A06B401CA063FB
:101E4000E08F401EE08701200190FEF78BFFA0EBA2
:101E50000900B04201D3701C00B94EB9012084F8CA
:101E6000510000BF002084F8500000BF032029E784
:101E7000E08E0028BFD1E08F0028BCD14A46314611
:101E8000204601F03DF940B12020606500BF0020F0
:101E900084F8500000BF012014E7A06850B900BFCB
:101EA000002000902068C068009020688068009042
:101EB00000BF00BF012084F8510000BF002084F85B
:101EC000500000BF606D08B10120FBE60020F9E67C
:101ED00070B504462546681EB0F1807F01D301200D
:101EE0000FE0681E4FF0E02148610F214FF0FF30F6
:101EF00001F038FC00204FF0E021886107200861E4
:101F0000002070BD30B502460B4600BF92F83C0081
:101F1000012801D1022030BD012082F83C0000BF21
:101F2000022082F83D00106844681068816824F03F
:101F300070041868044310684460104D1068A8428B
:101F40000BD01068B0F1804F07D00D4D1068A8423B
:101F500003D00C4D1068A84205D121F080015868CB
:101F6000014310688160012082F83D0000BF00201D
:101F700082F83C0000BF00BFCDE70000002C01400C
:101F8000000400400008004010B504460CB90120D0
:101F900010BD94F83D0028B9002084F83C0020468C
:101FA00000F026F8022084F83D00211D206801F091
:101FB0006FF9012084F8460000BF84F83E0001213B
:101FC0003F200155402001554120015500BF00BF71
:101FD000012084F84200432001554420015545204A
:101FE000015500BF012084F83D000020D0E700002B
:101FF00008B5094A016891420DD100BF0749C96976
:1020000041F00201054AD1611146C96901F002019E
:10201000009100BF00BF08BD000400400010024056
:102020002DE9F04104460D46002700BF94F83C001E
:10203000012802D10220BDE8F081012084F83C0093
:1020400000BF022084F83D002068866826F07706ED
:1020500026F47F46206886602868502833D00CDC40
:10206000202850D004DC00284BD0102851D149E062
:10207000302849D040284CD139E060282DD0702834
:1020800007D0B0F5805F03D0B0F5005F41D10DE01F
:1020900041E0D5E902136A68206801F03BF9206845
:1020A000866846F077062068866034E0D5E902133A
:1020B0006A68206801F02EF92068806840F480404A
:1020C0002168886027E0EA686968206801F0F2F911
:1020D0005021206801F029F91DE0EA68696820684C
:1020E00001F0FBF96021206801F01FF913E0EA68B4
:1020F0006968206801F0DEF94021206801F015F9D7
:1021000009E000BF00BF00BF2968206801F00DF999
:1021100001E0012700BF00BF012084F83D0000BF9F
:10212000002084F83C0000BF384684E710B586B034
:102130000446002002900390049005901349206803
:10214000884221D100BF1248806940F00800104940
:1021500088610846806900F00800019000BF00BF58
:102160001020029002200390059002A90948FEF772
:102170005BFC00BF0849486820F4406040F0E06024
:1021800040F40060486000BF06B010BD000400408D
:1021900000100240000C0140000001402DE9F04118
:1021A00004460D461646002700BF94F83C0001285F
:1021B00002D10220BDE8F081012084F83C0000BF7C
:1021C00036B1042E1BD0082E31D00C2E5ED145E046
:1021D0002946206801F0B2F82068806940F00800C4
:1021E000216888612068806920F004002168886186
:1021F00020688069296908432168886148E0294688
:10220000206801F0CBF82068806940F40060216804
:1022100088612068806920F4806021688861206876
:102220008069296940EA01202168886130E02946F7
:10223000206801F0E7F82068C06940F008002168D4
:10224000C8612068C06920F004002168C861206866
:10225000C069296908432168C86119E029462068D6
:1022600001F004F92068C06940F400602168C86189
:102270002068C06920F480602168C8612068C06956
:10228000296940EA01202168C86101E0012700BFF7
:1022900000BF00BF002084F83C0000BF384689E73B
:1022A00010B504460CB9012010BD94F83D0028B9C2
:1022B000002084F83C00204600F025F8022084F835
:1022C0003D00211D206800F0E3FF012084F8460056
:1022D00000BF84F83E0001213F20015540200155F8
:1022E0004120015500BF00BF012084F84200432077
:1022F0000155442001554520015500BF012084F8B7
:102300003D000020D0E7704710B504460CB901200D
:1023100010BDA06900B100E000BF94F8410028B9E9
:10232000002084F84000204600F02AF8242084F899
:1023300041002068C06820F400502168C860204631
:1023400001F016F92068006920F4904021680861C6
:102350002068406920F02A00216848612068C06830
:1023600040F400502168C86000206064202084F898
:10237000410084F842000020606300BFC8E700000D
:1023800010B586B00446002002900390049005909A
:102390004D49206888422FD100BF4C48806940F4E5
:1023A00080404A4988610846806900F48040019075
:1023B00000BF00BF00BF0846806940F0040088618C
:1023C0000846806900F00400019000BF00BF481576
:1023D0000290022003900320059002A93C48FEF7DA
:1023E00023FB4FF48060029000200390049002A928
:1023F0003748FEF719FB65E03649206888422ED140
:1024000000BF3248C06940F400303049C861084616
:10241000C06900F40030019000BF00BF00BF084653
:10242000806940F0040088610846806900F004007B
:10243000019000BF00BF04200290022003900320FF
:10244000059002A92248FEF7EFFA0820029000202A
:102450000390049002A91E48FEF7E6FA32E01E49F6
:10246000206888422ED100BF1848C06940F48020FF
:102470001649C8610846C06900F48020019000BF79
:1024800000BF00BF0846806940F008008861084628
:10249000806900F00800019000BF00BF081502909D
:1024A000022003900320059002A90C48FEF7BCFA15
:1024B0004FF40060029000200390049002A90748A6
:1024C000FEF7B2FA06B010BD00380140001002401D
:1024D000000801400044004000480040000C01405A
:1024E0002DE9F84F04460E46174699464FF0000A6C
:1024F00094F84100202850D106B117B90120BDE859
:10250000F88F00206064212084F84100FEF72AFC47
:102510008246A784E784A068B0F5805F04D1206973
:1025200010B90025B04602E035464FF000081EE025
:102530005346002280212046CDF8009001F096F805
:1025400020B1202084F841000320D8E745B9B8F82D
:102550000000C0F308002168486008F1020803E0A9
:102560002878216848606D1CE08C401EE084E08C77
:102570000028DDD15346002240212046CDF80090AE
:1025800001F074F820B1202084F841000320B6E760
:10259000202084F841000020B1E70220AFE700BF0F
:1025A000FEE700001FB54FF42E71B848FDF7E5FDBA
:1025B000B748B6498861B748C861B7480862B748A4
:1025C0000860B7484860B7488860B748C860B748EF
:1025D0000861B7484861B7484862B7488862B74859
:1025E000C862084602F03EF904462CB1B4A002F0DD
:1025F00045FB012004B010BD0121A44803F06AFC92
:1026000004463CB1B4A002F039FBA04801F0A0FFA1
:102610000120EFE700219D4803F09EFC04463CB1F9
:10262000B5A002F02BFB994801F092FF0120E1E7F1
:102630000121964803F030FB04463CB1B8A002F0FB
:102640001DFB924801F084FF0120D3E70322022101
:102650008E4803F091FA04463CB1BAA002F00EFB9A
:102660008A4801F075FF0120C4E73021874803F054
:10267000E9FB04463CB1BBA002F000FB834801F03B
:1026800067FF0120B6E70121804803F0C1FA044644
:102690003CB1BFA002F0F2FA7C4801F059FF0120E2
:1026A000A8E700221121794803F022FD04463CB13D
:1026B000C0A002F0E3FA754801F04AFF012099E753
:1026C00000200123042209210090704803F0D0F873
:1026D00004463CB1BFA002F0D1FA6C4801F038FFCB
:1026E000012087E703AAC649684801F0BFFF0446F6
:1026F0003CB1C4A002F0C2FA644801F029FF0120F5
:1027000078E76248039903F00BFB04463CB1C7A08D
:1027100002F0B4FA5D4801F01BFF01206AE70022D5
:1027200011465A4802F0B0FF04463CB1C8A002F07E
:10273000A5FA564801F00CFF01205BE70021534841
:1027400003F048F904463CB1CCA002F097FA4F4898
:1027500001F0FEFE01204DE700231A4619464B48C2
:1027600002F038FF04463CB1CFA002F087FA474898
:1027700001F0EEFE01203DE7444801F0E1FD044692
:102780003CB1D1A002F07AFA404801F0E1FE01200C
:1027900030E743F248513D4803F064F904463CB148
:1027A000D3A002F06BFA394801F0D2FE012021E7F4
:1027B00002A9364802F014F804463CB1D5A002F054
:1027C0005DFA324801F0C4FE012013E79DF80800CD
:1027D00040F0040002909DF808102C4803F046FCDD
:1027E00004463CB1D4A002F049FA284801F0B0FEFA
:1027F0000120FFE69421254803F0E2FA04463CB1AB
:10280000D6A002F03BFA214801F0A2FE0120F1E639
:1028100038211E4803F06EF904463CB1D7A002F0FF
:102820002DFA1A4801F094FE0120E3E601A91748A9
:1028300001F094FF04463CB1D7A002F01FFA134800
:1028400001F086FE0120D5E69DF8040040F01E0050
:1028500001909DF804100D4803F0C6FB04463CB1FE
:10286000D7A002F00BFA094801F072FE0120C1E680
:1028700000F0E8F904463CB1DBA002F0FFF90348A0
:1028800001F066FE0120B5E60020B3E6E401002079
:10289000994E0008954E00089D4E0008714E0008A4
:1028A0006D4E0008754E0008614C00085D4C000834
:1028B000654C0008974C00087D4C0008A54C0008AA
:1028C0006C6C636336383A20696E6974206661699E
:1028D0006C65642E0A0000006C6C636336383A2025
:1028E000736574207374616E646279206661696CCB
:1028F00065642E0A000000006C6C636336383A2071
:1029000073746F702074696D6572206F6E207072C1
:1029100065616D626C65206661696C65642E0A0094
:102920006C6C636336383A20736574207265677522
:102930006C61746F72206D6F6465206661696C658F
:10294000642E0A006C6C636336383A207365742019
:10295000706120636F6E666967206661696C65648B
:102960002E0A00006C6C636336383A20736574205D
:1029700072782074782066616C6C6261636B206D84
:102980006F6465206661696C65642E0A0000000052
:102990006C6C636336383A20736574207061636BC6
:1029A00065742074797065206661696C65642E0AAF
:1029B000000000006C6C636336383A207365742045
:1029C000747820706172616D73206661696C6564F2
:1029D0002E0A00006C6C636336383A2073657420ED
:1029E0006C6F7261206D6F64756C6174696F6E20BD
:1029F000706172616D73206661696C65642E0A0096
:102A000000389C1C6C6C636336383A20636F6E76BA
:102A100065727420746F20726567697374657220C3
:102A20006661696C65642E0A000000006C6C63636B
:102A300036383A2073657420726620667265717547
:102A4000656E6379206661696C65642E0A0000001A
:102A50006C6C636336383A20736574206275666601
:102A600065722062617365206164647265737320AE
:102A70006661696C65642E0A000000006C6C63631B
:102A800036383A20736574206C6F72612073796DEB
:102A900062206E756D2074696D656F757420666156
:102AA000696C65642E0A00006C6C636336383A20EA
:102AB0007265736574207374617473206661696CE8
:102AC00065642E0A000000006C6C636336383A209F
:102AD000636C6561722064657669636520657272F6
:102AE0006F7273206661696C65642E0A00000000D5
:102AF0006C6C636336383A20736574206C6F726156
:102B00002073796E6320776F7264206661696C65EB
:102B1000642E0A006C6C636336383A206765742053
:102B20007478206D6F64756C6174696F6E20666176
:102B3000696C65642E0A00006C6C636336383A2059
:102B4000736574207478206D6F64756C6174696F3F
:102B50006E206661696C65642E0A00006C6C6363AC
:102B600036383A20736574207278206761696E2068
:102B70006661696C65642E0A000000006C6C63631A
:102B800036383A20736574206F6370206661696C13
:102B900065642E0A000000006C6C636336383A20CE
:102BA00067657420747820636C616D7020636F6E4C
:102BB000666967206661696C65642E0A0000000022
:102BC0006C6C636336383A207365742074782063C4
:102BD0006C616D7020636F6E666967206661696CF9
:102BE00065642E0A000000006C6C636336383A207E
:102BF0007365742072656365697665206D6F6465C1
:102C0000206661696C65642E0A00000030B585B0ED
:102C100004460D4600F062F8002001A931C104907D
:102C2000012000230C2201460090054802F0E8FA3A
:102C300010B1012005B030BD00F004F80020F9E724
:102C4000E40100200EB5002204212248FEF784F89A
:102C5000012211031F48FEF77FF80020034640F2CF
:102C6000C232114600901C4802F05AFD08B1012002
:102C70000EBD40F2FF31184801F0ACFB08B1012055
:102C8000F6E700200121FF230246CDE900100C21C8
:102C9000114802F043FE08B10120E9E702A90E48FD
:102CA00001F01AFD08B10120E2E79DF8080040F0AC
:102CB000040002909DF80810074802F097FD08B143
:102CC0000120D5E7044801F0CFFB08B10120CFE790
:102CD0000020CDE7000C0140E401002008B50122EE
:102CE00004210F48FEF738F800224FF480510C48B9
:102CF000FEF732F80020034640F281321146009080
:102D0000084802F00DFD08B1012008BD40F2FF3176
:102D1000044801F05FFB08B10120F6E70020F4E76A
:102D2000000C0140E401002000B585B000200190B6
:102D300002900390049000BF4E48806940F010005C
:102D40004C4988610846806900F01000009000BF7F
:102D500000BF00BF0846806940F020008861084637
:102D6000806900F02000009000BF00BF00BF08464F
:102D7000806940F0040088610846806900F0040022
:102D8000009000BF00BF00BF0846806940F0080007
:102D900088610846806900F00800009000BF00BF0D
:102DA000002248F210013448FDF7D6FF002241F21C
:102DB0000D013248FDF7D0FF012242F220012F48D9
:102DC000FDF7CAFF48F21000019001200290002098
:102DD00003900320049001A92748FDF725FE43F244
:102DE0002500019001200290002003900320049010
:102DF00001A92248FDF718FE022001900020029050
:102E0000039001A91D48FDF70FFE4FF4805001907B
:102E10001B4802900120039001A91748FDF704FE0A
:102E200008200190012002900220039003200490CA
:102E300001A91248FDF7F8FD4FF400700190114808
:102E400002900020039001A90C48FDF7EDFD00223F
:102E500011461720FEF72EF91720FEF71BF9002266
:102E600011462820FEF726F92820FEF713F905B0B1
:102E700000BD00000010024000080140000C0140AD
:102E8000000021100000111010B50B480B4908601C
:102E90000B484860002109488160C1604FF48041BF
:102EA0000161002141618161C1610162FDF760FF43
:102EB00008B1FDF792FD10BD00540040180000203D
:102EC000A086010010B50E480E4908604FF48270CC
:102ED000486000210B488160C160016141614FF48D
:102EE000007181610821C16100210162416281623A
:102EF0000A21C162FEF786FC08B1FDF76EFD10BD28
:102F0000003001406C00002000B58DB00020099019
:102F10000A900B900C90079008901C216846FDF7D2
:102F20002CF920482049086041F61F4048600021E4
:102F30001D4881601321C160002101618161FFF79B
:102F400023F808B1FDF749FD4FF48050099009A915
:102F50001548FFF765F808B1FDF73FFD1248FFF788
:102F60009FF908B1FDF739FD00200790089007A9E7
:102F70000D48FEF7C7FF08B1FDF72FFD6020009058
:102F80000A20019000200290049000226946064821
:102F9000FFF704F908B1FDF720FD0348FFF7C6F875
:102FA0000DB000BD00040040C400002010B50B4867
:102FB0000B4908604FF4E130486000210848816007
:102FC000C16001610C21416100218161C161FFF794
:102FD0009BF908B1FDF701FD10BD0000003801406C
:102FE0000C01002010B50B480B4908604FF4165037
:102FF0004860002108488160C16001610C21416185
:1030000000218161C161FFF77FF908B1FDF7E5FC9F
:1030100010BD0000004400405401002010B50B48D2
:103020000B4908604FF41650486000210848816041
:10303000C16001610C21416100218161C161FFF723
:1030400063F908B1FDF7C9FC10BD0000004800405D
:103050009C01002000BFFEE700BFFEE770470000B4
:1030600008B508490968C9084FF47A72B1FBF2F152
:103070004143009100BF00BF00994A1E0092002901
:10308000F9D108BD0C000020F8B504460E461546DF
:103090006068B0F5827F0DD1A068B0F5004F03D015
:1030A000A068B0F5806F05D12068006820F040006E
:1030B000216808606068B0F5827F11D1A068B0F522
:1030C000806F0DD13346002201212046009500F08B
:1030D00039F898B1606D40F0200060650320F8BDBC
:1030E0003346002280212046009500F02BF828B1BD
:1030F000606D40F0200060650320F0E70020EEE7FF
:10310000F8B504460E4615463346012202212046F4
:10311000009500F017F828B1606D40F02000606560
:103120000320F8BD3346002280212046009500F0A0
:1031300009F828B1606D40F0200060650320F0E7D9
:103140000020EEE72DE9F84F04460D4690461E4656
:10315000DDF82890FDF706FEA0EB0900371AFDF711
:1031600001FE82462C480068C0F3CB3078430090C3
:1031700045E0701C002842D0FDF7F4FDA0EB0A00EA
:10318000B84200D2A7BB2068406820F0E000216868
:1031900048606068B0F5827F0DD1A068B0F5004F3F
:1031A00003D0A068B0F5806F05D12068006820F0DA
:1031B000400021680860A06AB0F5005F0DD100BF33
:1031C0002068006820F400502168086020680068CA
:1031D00040F400502168086000BF012084F85100CD
:1031E00000BF002084F8500000BF0320BDE8F88F26
:1031F000FFE7009800B900270098401E0090206863
:1032000080682840A84201D1012000E0002040450C
:10321000AFD10020EAE700000C000020704710B595
:10322000FDF7C8FE10BD00B58FB0282105A8FCF73A
:10323000A4FF14216846FCF7A0FF012005900004BC
:103240000690002007900120099002200C90C103F5
:103250000D914FF4E0110E9105A8FEF7A1F808B109
:10326000FDF7BBFB0F200090022001900020029090
:103270004FF4806003900020049002216846FDF71F
:103280006BFF08B1FDF7A9FB0FB000BD7047000050
:1032900010B502681C4B984208D0B0F1804F05D0A1
:1032A0001A4B984202D01A4B984203D122F0700276
:1032B0004B681A43144B984208D0B0F1804F05D0A8
:1032C000124B984202D0124B984203D122F4407222
:1032D000CB681A4322F080034C6943EA040202607F
:1032E0008B68C3620B688362074B984201D10B69FC
:1032F000036301234361036903F001031BB1036905
:1033000023F00103036110BD002C014000040040C4
:103310000008004030B50C46816821F47F4142EA44
:10332000032525432943816030BD0A46816821F089
:10333000700142F0070319438160704730B5026A9B
:10334000056A25F0010505624368846924F070046C
:1033500024F003040D682C4322F002028D682A43F6
:103360000D4DA84206D100BF22F00802CD682A43C5
:1033700022F00402084DA84207D123F4807323F4FD
:1033800000734D692B438D692B43436084614D6805
:103390004563026230BD0000002C014030B5026A76
:1033A000056A25F0100505624368846924F4E04449
:1033B00024F440740D6844EA052422F020028D684C
:1033C00042EA05120E4DA84207D100BF22F080024A
:1033D000CD6842EA051222F04002094DA84209D107
:1033E00023F4806323F400634D6943EA85038D6908
:1033F00043EA8503436084614D688563026230BDA2
:10340000002C014030B5026A056A25F4807505621A
:103410004368C46924F0700424F003040D682C434D
:1034200022F400728D6842EA05220F4DA84207D1AE
:1034300000BF22F40062CD6842EA052222F48062D5
:10344000094DA84209D123F4805323F400534D6958
:1034500043EA05138D6943EA05134360C4614D686F
:10346000C563026230BD0000002C014030B5036A24
:10347000056A25F4805505624468C26922F4E04279
:1034800022F440720D6842EA052223F400538D684D
:1034900043EA0533064DA84204D124F480444D6923
:1034A00044EA85144460C2614D680564036230BD1E
:1034B000002C014030B50B461446026A056A25F01F
:1034C00001050562816921F0F00141EA041122F051
:1034D0000A021A438161026230BD30B50B461446C0
:1034E000026A056A25F010050562816921F47041C0
:1034F00041EA043122F0A00242EA03128161026231
:1035000030BD00BF00BF02680C3252E8002F22F429
:10351000907102680C3242E80013002BF3D100BF17
:1035200000BF00BF0268143252E8002F22F00101F0
:103530000268143242E80013002BF3D100BF016B84
:1035400001290ED100BF00BF02680C3252E8002FE3
:1035500022F0100102680C3242E80013002BF3D174
:1035600000BF202180F84210002101637047000055
:1035700070B504462168096921F44051E26811439D
:10358000226811612269A1681143626941EA02055A
:103590002168C96841F20C62914329432268D160D5
:1035A0002168496921F44071A2691143226851617F
:1035B0002D4A2168914202D1FDF7AAFE01E0FDF7F4
:1035C00097FE00EBC00101EB001162689200B1FBB5
:1035D000F2F100EBC00202EB001263689B00B2FB49
:1035E000F3F26423B2FBF3F202EBC20303EB021229
:1035F000A1EB8201322202EB01116422B1FBF2F154
:1036000001F0F00100EBC00202EB001263689B00C6
:10361000B2FBF3F26423B2FBF3F201EB021200EB14
:10362000C00101EB001163689B00B1FBF3F100EBFB
:10363000C00303EB00136668B600B3FBF6F3642621
:10364000B3FBF6F303EBC30606EB0313A1EB830115
:10365000322303EB01116423B1FBF3F101F00F01FD
:1036600011442268916070BD003801402DE9F84393
:1036700004460D4617469846089E31E0701C70B30C
:10368000FDF770FBA0EB0800B04200D816B903208C
:10369000BDE8F8832068C06800F00400F8B1802D10
:1036A0001ED0402D1CD020680068C0F3C000B0B10F
:1036B00000BF0020009020680068009020684068EB
:1036C000009000BF00BF2046FFF71BFF082060648A
:1036D00000BF002084F8400000BF0120D8E7FFE7CA
:1036E000206800682840A84201D1012000E00020A5
:1036F000B842C3D00020CBE700BFFEE70FB4054BB4
:1037000010B503A9044A029800F02CF910BC5DF82A
:1037100014FB00002543000810000020014B024A62
:1037200000F020B9254300081000002041000802E5
:1037300018BF04200A0E18BF40F001004FF07F426E
:1037400032EA010108BF40F00200012808BF05204D
:103750007047000002480068C0F302207047000074
:103760000CED00E010B5002804DB0A07130E054A33
:10377000135406E00A07140E034A00F00F031B1F40
:10378000D45410BD00E400E018ED00E000214FF03B
:103790007E50FCF792BDFCF706BD00210846FCF701
:1037A0008CBD61214FF0E040FDF734B86FF05E0151
:1037B0000807FDF72FB802E008C8121F08C1002A49
:1037C000FAD170477047002001E001C1121F002AA2
:1037D000FBD17047014908607047000014000020C9
:1037E0002DE9FF5F82B00021DDE90430020DDDF834
:1037F00040B0034318D044F61050A2F2FF324243C7
:103800001514119801281FD0A5EB0B00401C5FEA8E
:10381000000A4FF000064E4FDFF83891B046504690
:1038200015D5CAF1000413E0119801244AA3012818
:1038300001D16FEA0B010298119AC0E90031C0E989
:10384000024206B0BDE8F09FCBF10000DFE704467E
:103850000021404A491842EB0450CDE9001012E023
:10386000E00707D032463B4640464946FCF70AFE91
:103870008046894632463B4610461946FCF702FE12
:1038800006460F466410002CEAD1DDE90401DDE9AB
:103890000023BAF1000F06DAFCF7F4FD42464B466E
:1038A000FCF7F0FD05E0FCF75FFE42464B46FCF7F7
:1038B0005BFE04460E460022284BFDF753F803D862
:1038C0004FF0FF30014607E00022254B20463146ED
:1038D000FCF731FDFDF707F8102409E0002C0ADBA6
:1038E0000A220023FCF70DFF039B30321A55641E99
:1038F00050EA0102F2D1641C039AC4F1110314448A
:10390000119A012A03D0012208430DD10AE008438D
:1039100004D000204FF0110B119072E7A3EB0B05C0
:103920006D1E0DE05B4504DD4FF0000205F1010561
:1039300004E003DA4FF00002A5F10105002AECD003
:1039400002981199C0E90231C0E9004579E7000009
:10395000000014400000F03F300000000000F04381
:103960000000E03F2DE9FF4F95B09A468846064695
:103970000025EEE1252877D100242746F94A0121C8
:10398000039400E0044316F8013F203B01FA03F0E2
:103990001042F7D130782A2811D06FF02F033078F9
:1039A000A0F13002092A16D8039A44F0020402EB6F
:1039B000820203EB42021044761C0390EFE758F8B2
:1039C000042B0392002A03DA504244F4005403907B
:1039D00044F00204761C30782E2816D116F8010F18
:1039E00044F004042A280DD06FF02F023078A0F1A3
:1039F0003003092B09D807EB870302EB4303C718F1
:103A0000761CF3E758F8047B761C30786C280FD0CE
:103A100006DC4C2817D068280DD06A2814D104E0A1
:103A2000742810D07A280FD10DE044F400140AE075
:103A300044F4801401E044F440147278824202D1CC
:103A400004F58014761C761C307866280BD013DCC5
:103A5000582877D009DC002875D04528F6D04628AC
:103A6000F4D047281AD193E118E0632835D06428B0
:103A700079D0652812D18BE1702873D008DC6728D3
:103A8000F1D069286FD06E280DD06F2806D1ACE038
:103A900073282CD0752874D0782853D052461799A3
:103AA00090476D1C54E1C4F30250022809D003284A
:103AB0000DD0D8F8001004280DD00D6008F10408CE
:103AC00046E1D8F80010EA17C1E90052F6E7D8F845
:103AD00000100D80F2E70D70F0E718F8041B8DF868
:103AE000001000208DF80100EB46012003E058F89B
:103AF00004BB4FF0FF3061074FF0000102D40DE02E
:103B000009F101018946B9420FDA8145F8DB1BF85A
:103B100009100029F4D108E009F101018946814228
:103B2000FADB1BF809100029F6D103985346A0EBE5
:103B3000090721463846179A00F080FA284400EB1E
:103B4000090507E044E008E10DE01BF8010B5246CF
:103B500017999047B9F10109F7D2534621463846E3
:103B6000179AF2E039E00A21C4F302524FF0000B39
:103B70000091022A06D058F8040BC117032A09D075
:103B80000AE023E008F1070020F00702F2E8020152
:103B9000904605E000B2C117042A01D140B2C11716
:103BA000002906DA0A460021404261EB02012D227B
:103BB00002E0220504D52B228DF80420012203E027
:103BC000E20701D02022F7E7914657E00A2100E002
:103BD00010214FF0000B00910BE010214FF0000B73
:103BE00044F004040827009103E008204FF0000B84
:103BF0000090C4F30252022A05D058F8040B0021A9
:103C0000032A08D008E008F1070020F00702F2E8D4
:103C10000201904603E080B2042A00D1C0B24FF006
:103C2000000922072AD53278702A07D0DDF800C0B3
:103C30008CF0100C5CEA0B0C05D00EE040228DF8E5
:103C40000420012208E050EA010306D030238DF859
:103C500004308DF8052002229146009B83F0080372
:103C600053EA0B030AD150EA010201D1620705D5DC
:103C700030228DF804204FF001097F1E3278582A37
:103C800004D039A20C920CAA02920BE03BA2F9E7F5
:103C90005B46009AFCF735FD0C9B9B5C029A521E1A
:103CA0000292137050EA0102F2D1029804A9081A94
:103CB00000F1200B600702D524F4803400E00127D6
:103CC0005F4502DDA7EB0B0000E0002000EB0B01DD
:103CD000009003984944401A0390E00306D45346E9
:103CE0002146179A039800F0A9F90544002706E039
:103CF00001A85246C05D179990476D1C7F1C4F4527
:103D0000F6DBE0030CD553462146179A039800F0E2
:103D100095F9054404E030205246179990476D1CF0
:103D20000099481E00900029F5DC08E002980299ED
:103D300052460078491C0291179990476D1CBBF1BF
:103D40000001ABF1010BF1DC5BE100F065F905442A
:103D5000761C307800287FF40DAE19B02846BDE8F7
:103D6000F08F000009280100303132333435363706
:103D700038396162636465660000000030313233B7
:103D80003435363738394142434445460000000057
:103D9000600700D4062708F1070020F00700F0E8CC
:103DA0000223804603F0004C5FEA0C0001D097A08C
:103DB00009E0200501D596A005E0E00701D095A017
:103DC00001E0AFF24C001390307823F000436528F7
:103DD0000CD006DC452809D046281DD047287FD1C5
:103DE0003BE0662818D067287AD136E00021112FF1
:103DF00001DB112000E0781CCDE9000104A90CA82A
:103E0000FFF7EEFCDDE90D010C9A4FF0000B07F116
:103E10000109109200914EE04FF000400097CDE96B
:103E2000011004A90CA8FFF7DBFCDDE90D020C9BD7
:103E30000F994FF0000B91461093009211B9791C25
:103E400000EB0109B7EB090003D4C0F1FF3B07F118
:103E50000109A9EB0700019042E0012F00DA0127D8
:103E60000021112F01DD112000E03846CDE90001CD
:103E700004A90CA8FFF7B4FCDDE90D010C9A009130
:103E80004FF0000BB946109221070FD4009A4A4513
:103E900003DA914601E0A9F10109B9F1010F05DD4D
:103EA000109AA9F10101515C3029F4D0B84202DA2C
:103EB00010F1040F03DA0121CDE9011010E0002810
:103EC00003DC8344A9EB000102E0411C494500DD0D
:103ED0008946A0EB0B00401C01904FF0004002907F
:103EE000200705D40198484502DB4FF0FF300190D0
:103EF00000208DF84B0002980DF14B07B0F1004FF8
:103F000025D002200C902B200D90029800280CDA6E
:103F1000404202902D200D9007E00A210298FCF704
:103F2000DAFB3031029007F8011D0C99481E0C9005
:103F30000029F2DC02980028EFD1791E0D98087054
:103F4000307800F0200040F0450007F8020D11A87D
:103F5000C01BC01D02901398007800B1012000EB37
:103F60000901019801EBE071029801440398401A9D
:103F7000401E0390E00306D453462146179A039847
:103F800000F05CF805441398007818B15246179970
:103F900090476D1CE00323D553462146179A03989A
:103FA00000F04CF805441BE0BBF1000F07DB009864
:103FB000584504DD1098179910F80B0001E0179987
:103FC00030205246904701980BF1010B401E05F13D
:103FD0000105019004D12E205246179990476D1C7F
:103FE000B9F10001A9F10109DEDC05E017F8010BC8
:103FF0005246179990476D1C0299481E029000295D
:10400000F4DC53462146179A03989EE62D000000E3
:104010002B000000200000002DE9F041044600259F
:104020001E461746880404D405E039462020B047D0
:104030006D1C641EF9D52846BDE8F0812DE9F041DC
:10404000044600251E469046C80301D5302700E0EF
:104050002027880404D505E041463846B0476D1C4A
:10406000641EF9D52846BDE8F08138B504466425BC
:104070001AE068466169884708B1012038BD9DF89B
:10408000000008B90020F9E79DF80000012809D1D7
:1040900045B10A20616A8847681EC5B205B103E0D0
:1040A0000120EBE70120E9E7E3E72DE9FF410446C2
:1040B00015461E4633462A46012101A8276AB847FD
:1040C00018B1012004B0BDE8F0810020FAE700003B
:1040D000F8B504460E4617461D46B5F5C07F04DB0D
:1040E00011A0A16A88470220F8BD4FF4C07104F105
:1040F0003600FCF742F81E208DF800008DF80160B4
:104100006B1C04F1360202216846D4F820C0E04757
:1041100008B10120E8E72A4604F137013846FCF7E8
:1041200013F80020E0E700006C6C636336383A2037
:104130006C656E206973206F766572203338332E7C
:104140000A000000F8B504460E4617461D46B5F5B0
:10415000C07F04DB13A0A16A88470220F8BD4FF49A
:10416000C07104F13600FCF708F81D208DF800003E
:10417000300A8DF80100F0B28DF802006B1C04F1DA
:10418000360203216846D4F820C0E04708B1012078
:10419000E4E72A4604F137013846FBF7D5FF002053
:1041A000DCE700006C6C636336383A206C656E2087
:1041B0006973206F766572203338332E0A00000051
:1041C0002DE9F04104460E4617461D46B5F5C07F61
:1041D00005DB10A0A16A88470220BDE8F0814FF4FA
:1041E000C07104F13600FBF7C8FF84F836602A4638
:1041F000394604F13700FBF7A7FF00231A46691C74
:1042000004F13600D4F820C0E04708B10120E4E70B
:104210000020E2E76C6C636336383A206C656E20F0
:104220006973206F766572203338332E0A000000E0
:104230002DE9F04104460E4617461D46B5F5BF7FF1
:1042400005DD12A0A16A88470220BDE8F0814FF485
:10425000C07104F13600FBF790FF0E2084F83600A1
:10426000372006552A46394604F13800FBF76CFF23
:1042700000231A46A91C04F13600D4F820C0E047F8
:1042800008B10120E1E70020DFE700006C6C636308
:1042900036383A206C656E206973206F766572201F
:1042A0003338322E0A0000002DE9F04104460E4654
:1042B00017461D46B5F5BF7F05DB13A0A16A8847E9
:1042C0000220BDE8F0814FF4C07104F13600FBF725
:1042D00054FF0D2084F83600310A3720015538206C
:1042E00006552A46394604F13900FBF72DFF002315
:1042F0001A46E91C04F13600D4F820C0E04708B1A2
:104300000120DEE70020DCE76C6C636336383A207E
:104310006C656E206973206F766572203338312E9C
:104320000A00000013B50C464FF47A730122694667
:104330000248FEF7D5F800981CBD00000C010020D3
:1043400038B504460CB9022038BD94F83000012875
:1043500001D00320F8E72046FFF787FE054625B188
:104360000CA0A16A88470420EEE700208DF8000029
:104370008DF8010002236A4607212046FFF720FF3F
:10438000054625B109A0A16A88470120DCE7002085
:10439000DAE700006C6C636336383A206368697052
:1043A00020697320627573792E0A00006C6C636358
:1043B00036383A20636C656172206465766963659E
:1043C000206572726F7273206661696C65642E0A73
:1043D00000000000F8B504460E460CB90220F8BDF6
:1043E00094F83000012801D00320F8E72046FFF7B9
:1043F0003CFE054625B10DA0A16A88470420EEE7E2
:10440000300A8DF80000F0B28DF8010002236A46F0
:1044100019462046FFF7D4FE054625B109A0A16A3A
:1044200088470120DBE70020D9E700006C6C63635C
:1044300036383A2063686970206973206275737931
:104440002E0A00006C6C636336383A20636C656139
:10445000722069727120737461747573206661696A
:104460006C65642E0A000000F8B504460CB9022001
:10447000F8BD94F83000012801D00320F8E7204669
:10448000FFF7F3FD054625B11CA0A16A884704206B
:10449000EEE740F2FF36300A8DF80000F0B28DF8FA
:1044A000010002236A4619462046FFF789FE0546A9
:1044B00025B118A0A16A88470120D9E72046FFF757
:1044C000D4FD054625B10DA0A16A88470420CFE799
:1044D000FF208DF800008DF801008DF80200032305
:1044E0006A4682212046FFF76BFE054625B112A0E1
:1044F000A16A88470120BBE70020B9E76C6C6363C1
:1045000036383A2063686970206973206275737960
:104510002E0A00006C6C636336383A20636C656168
:104520007220697271207374617475732066616999
:104530006C65642E0A0000006C6C636336383A20A8
:10454000736574207278206661696C65642E0A0058
:1045500038B504460CB9022038BD94F83000012863
:1045600001D00320F8E72046FFF77FFD054625B17F
:1045700018A0A16A88470420EEE7002000900123DC
:104580006A4684212046FFF71BFE054625B117A089
:10459000A16A88470520DFE720698047054625B1E5
:1045A00019A0A16A88470620D6E7606880470546BB
:1045B00025B11EA0A16A88470720CDE7E0698047A2
:1045C000054625B122A0A16A88470120C4E7002042
:1045D000C2E700006C6C636336383A206368697028
:1045E00020697320627573792E0A00006C6C636316
:1045F00036383A20706F77657220646F776E206668
:1046000061696C65642E0A006C6C636336383A200D
:1046100062757379206770696F206465696E69746B
:10462000206661696C65642E0A0000006C6C63632F
:1046300036383A207265736574206770696F20643C
:1046400065696E6974206661696C65642E0A000094
:104650006C6C636336383A20737069206465696EE8
:104660006974206661696C65642E0A002DE9F84F53
:1046700004460D46164614B90220BDE8F88F94F89A
:104680003000012801D00320F7E72846FBF7E4FFBC
:104690000E4900900E4801F0E7FD83464FF084413B
:1046A000FBF7D9FD81460B49C80201F0DDFD8246CA
:1046B0004946FBF702FE80460099FBF7CCFD074612
:1046C000FBF7DCFF30600020D7E700000000C040AF
:1046D000000020410000C84170B504460E460CB9E8
:1046E000022070BD94F83000012801D00320F8E7C3
:1046F0002046FFF7BAFC054625B10AA0A16A884703
:104700000420EEE70123324640F236712046FFF7DF
:1047100019FD054625B109A0A16A88470120E0E7F7
:104720000020DEE76C6C636336383A20636869709A
:1047300020697320627573792E0A00006C6C6363C4
:1047400036383A20726561642072656769737465F2
:1047500072206661696C65642E0A000070B50446BB
:104760000E460CB9022070BD94F83000012801D02B
:104770000320F8E72046FFF778FC054625B10AA09C
:10478000A16A88470420EEE70123324640F6D801AB
:104790002046FFF7D7FC054625B109A0A16A884746
:1047A0000120E0E70020DEE76C6C636336383A20D6
:1047B0006368697020697320627573792E0A00003E
:1047C0006C6C636336383A20726561642072656789
:1047D0006973746572206661696C65642E0A0000F5
:1047E00070B504460E460CB9022070BD94F8300036
:1047F000012801D00320F8E72046FFF736FC0546E4
:1048000025B10AA0A16A88470420EEE701233246B9
:1048100040F689012046FFF795FC054625B109A021
:10482000A16A88470120E0E70020DEE76C6C636343
:1048300036383A206368697020697320627573792D
:104840002E0A00006C6C636336383A20726561642E
:10485000207265676973746572206661696C65644E
:104860002E0A00001CB504460CB902201CBDA06A2B
:1048700008B90320FAE7A06920B965A0A16A8847B2
:104880000320F3E7E06920B968A0A16A8847032004
:10489000ECE7206A20B96DA0A16A88470320E5E70C
:1048A000206820B972A0A16A88470320DEE760680B
:1048B00020B978A0A16A88470320D7E7A06820B96B
:1048C0007DA0A16A88470320D0E7E06820B983A0D3
:1048D000A16A88470320C9E7206920B988A0A16A96
:1048E00088470320C2E7606920B98EA0A16A884783
:1048F0000320BBE7606A20B993A0A16A8847032020
:10490000B4E7E06A20B997A0A16A88470320ADE721
:10491000A069804720B19CA0A16A88470120A5E733
:104920002068804730B1A1A0A16A8847E06980472C
:1049300004209BE7E068804740B1A7A0A16A8847B0
:10494000E06980476068804705208FE70120A16803
:10495000884750B1ABA0A16A8847E069804760688A
:10496000804720698047062080E70520616A8847E4
:104970000020A168884750B1A2A0A16A8847E069D9
:104980008047606880472069804706206EE70A20DC
:10499000616A88470120A168884750B199A0A16A3F
:1049A0008847E06980476068804720698047062023
:1049B0005CE70520616A8847012301AAC0212046DF
:1049C000FFF773FB50B196A0A16A8847E069804762
:1049D0006068804720698047062047E700200090F4
:1049E00001236A4680212046FFF7EAFB50B193A0DD
:1049F000A16A8847E06980476068804720698047EE
:104A0000062033E7012084F8300000202EE7000064
:104A10006C6C636336383A207370695F696E6974D1
:104A2000206973206E756C6C2E0A00006C6C6363D9
:104A300036383A207370695F6465696E69742069FD
:104A400073206E756C6C2E0A000000006C6C636342
:104A500036383A207370695F77726974655F726582
:104A60006164206973206E756C6C2E0A0000000072
:104A70006C6C636336383A2072657365745F677077
:104A8000696F5F696E6974206973206E756C6C2E36
:104A90000A0000006C6C636336383A2072657365F7
:104AA000745F6770696F5F6465696E6974206973AC
:104AB000206E756C6C2E0A006C6C636336383A207D
:104AC00072657365745F6770696F5F77726974652B
:104AD000206973206E756C6C2E0A00006C6C636329
:104AE00036383A20627573795F6770696F5F696EF7
:104AF0006974206973206E756C6C2E0A00000000CA
:104B00006C6C636336383A20627573795F677069DD
:104B10006F5F6465696E6974206973206E756C6C73
:104B20002E0A00006C6C636336383A206275737924
:104B30005F6770696F5F72656164206973206E756D
:104B40006C6C2E0A000000006C6C636336383A20EF
:104B500064656C61795F6D73206973206E756C6C30
:104B60002E0A00006C6C636336383A207265636508
:104B70006976655F63616C6C6261636B2069732049
:104B80006E756C6C2E0A00006C6C636336383A20CC
:104B900073706920696E697469616C697A6174699E
:104BA0006F6E206661696C65642E0A006C6C6363CD
:104BB00036383A207265736574206770696F2069B2
:104BC0006E697469616C697A6174696F6E2066617F
:104BD000696C65642E0A00006C6C636336383A2099
:104BE00062757379206770696F20696E6974696195
:104BF0006C697A6174696F6E206661696C65642E98
:104C00000A0000006C6C636336383A207265736585
:104C1000742063686970206661696C65642E0A009F
:104C20006C6C636336383A20676574207374617402
:104C30007573206661696C65642E0A006C6C636331
:104C400036383A20736574207374616E646279201B
:104C50006661696C65642E0A0000000000207047E0
:104C60000020704770B5044602210348FCF76CF839
:104C700005462570002070BD000C01400FB408B53A
:104C800003A8009000990298FEF748FD00200090CC
:104C900001B05DF814FB10B504462046FBF7A0FEFA
:104CA00010BD000070B504460D461646202C2CD0D1
:104CB0000CDC042C1DD004DC012C12D0022C38D1C9
:104CC00013E0082C19D0102C33D11AE0402C20D03E
:104CD000802C22D0B4F5807F23D0B4F5007F28D17A
:104CE00023E017A0FFF7CAFF27E01BA0FFF7C6FFCE
:104CF00023E01FA0FFF7C2FF1FE025A0FFF7BEFFC4
:104D00001BE02DA0FFF7BAFF17E032A0FFF7B6FFB8
:104D100013E037A0FFF7B2FF0FE03BA0FFF7AEFFB5
:104D20000BE03FA0FFF7AAFF07E044A0FFF7A6FFB4
:104D300003E048A0FFF7A2FF00BF00BF70BD000066
:104D40006C6C636336383A20697271207478206421
:104D50006F6E652E0A0000006C6C636336383A2073
:104D600069727120727820646F6E652E0A000000EF
:104D70006C6C636336383A206972712070726561B9
:104D80006D626C652064657465637465642E0A00E9
:104D90006C6C636336383A206972712076616C6995
:104DA000642073796E6320776F7264206465746524
:104DB000637465642E0A00006C6C636336383A20B5
:104DC0006972712076616C696420686561646572DE
:104DD0002E0A00006C6C636336383A2069727120C9
:104DE000686561646572206572726F722E0A0000D8
:104DF0006C6C636336383A20697271206372632089
:104E00006572726F722E0A006C6C636336383A20DA
:104E10006972712063616420646F6E652E0A000000
:104E20006C6C636336383A20697271206361642068
:104E300064657465637465642E0A00006C6C63635A
:104E400036383A206972712074696D656F75742EF9
:104E50000A0000006C6C636336383A20756E6B6E26
:104E60006F776E20636F64652E0A00000020704724
:104E70000020704710B504460CB1012000E000206E
:104E8000024601210248FBF767FF002010BD000029
:104E9000000C014000207047002070472DE9F041D0
:104EA00006460C4617461D46002210211948FBF7FE
:104EB00053FF9CB1A2B24FF47A7331461648FCF707
:104EC00004FE8046B8F1000F07D0012210211148DE
:104ED000FBF742FF0120BDE8F08100BF95B1AAB207
:104EE0004FF47A7339460C48FCF72EFD8046B8F132
:104EF000000F06D0012210210648FBF72DFF0120EC
:104F0000E9E700BF012210210248FBF725FF00203E
:104F1000E1E70000000801406C0000202DE9FE439D
:104F2000044614B90220BDE8FE8394F8300001283D
:104F300001D00320F7E700200290032302AA1221E8
:104F40002046FFF7B2F8064626B17AA0A16A884744
:104F50000120E8E79DF80A009DF8091040EA0125C4
:104F600002230DF1090219462046FFF729F90646EA
:104F700026B178A0A16A88470120D4E7002084F8F0
:104F8000340005F0040030B1E06A20B1002211467F
:104F90000420E36A984705F0080030B1E06A20B1C8
:104FA000002211460820E36A984705F0100030B14E
:104FB000E06A20B1002211461020E36A984705F00C
:104FC000200030B1E06A20B1002211462020E36ABF
:104FD000984705F0400048B1E06A20B10022114630
:104FE0004020E36A9847012084F8340005F08000EF
:104FF00048B1E06A20B1002211468020E36A984758
:10500000012084F8320005F4807050B1E06A28B1C4
:10501000002211464FF48070E36A9847012084F81B
:10502000330005F4007000283CD0002001900123DB
:1050300001AA4FF412612046FFF736F9064626B161
:105040004DA0A16A884701206DE701236A4640F61A
:1050500044112046FFF776F8064626B14EA0A16A15
:10506000884701205FE79DF8000040F002000090B3
:1050700001236A4640F644112046FFF715F906461B
:1050800026B13DA0A16A884701204CE7E06A28B11B
:10509000002211464FF40070E36A9847012084F81B
:1050A000350000BF05F0010048B1E06A20B10022E0
:1050B00011460120E36A9847012084F8310005F089
:1050C0000200002834D000200290032302AA1321FA
:1050D0002046FEF7EAFF064626B137A0A16A8847B8
:1050E000012020E79DF809709DF80A803B4604F5F1
:1050F000DB7241462046FEF7EBFF064626B138A09C
:10510000A16A884701200EE7A4F8B672E06A70B180
:1051100094F8340030B93A4604F5DB710220E36AB2
:10512000984704E0002211460220E36A984700BF36
:105130000020F8E66C6C636336383A2067657420AB
:1051400069727120737461747573206661696C652E
:10515000642E0A006C6C636336383A20636C6561B8
:10516000722069727120737461747573206661694D
:105170006C65642E0A0000006C6C636336383A205C
:1051800077726974652072656769737465722066E9
:1051900061696C65642E0A006C6C636336383A2072
:1051A00072656164207265676973746572206661F7
:1051B000696C65642E0A00006C6C636336383A20B3
:1051C00067657420727820627566666572207374F4
:1051D00061747573206661696C65642E0A00000055
:1051E0006C6C636336383A20726561642062756660
:1051F000666572206661696C65642E0A00000000B5
:105200002DE9F04F87B004468A4690469B461CB96C
:10521000022007B0BDE8F08F94F83000012801D0DB
:105220000320F6E72046FEF720FF054625B19DA0A6
:10523000A16A88470420ECE740F2FF394FEA1920C1
:105240008DF8100009F0FF008DF81100022304AA68
:1052500019462046FEF7B4FF054625B197A0A16A7E
:1052600088470120D5E72046FEF7FFFE054625B119
:105270008CA0A16A88470420CBE7CDF818A00123B1
:1052800006AA80212046FEF79BFF054625B194A083
:10529000A16A88470120BCE72046FEF7E6FE0546E6
:1052A00025B180A0A16A88470420B2E74FEA182000
:1052B0008DF8100008F0FF008DF811008DF812B085
:1052C0001398C0B28DF8130010988DF8140011983F
:1052D0008DF81500062304AA8C212046FEF770FFE6
:1052E000054625B186A0A16A8847012091E711985B
:1052F00000282BD12046FEF7B8FE054625B169A04F
:10530000A16A8847042084E7012303AA40F236718A
:105310002046FEF717FF054625B184A0A16A8847FD
:10532000012076E79DF80C0040F004000390012373
:1053300003AA40F236712046FEF7B6FF054625B1B6
:105340007AA0A16A8847012063E72BE02046FEF798
:105350008CFE054625B153A0A16A8847042058E772
:10536000012303AA40F236712046FEF7EBFE054604
:1053700025B16EA0A16A884701204AE79DF80C007C
:1053800020F004000390012303AA40F23671204666
:10539000FEF78AFF054625B164A0A16A884701206F
:1053A00037E700BF2046FEF760FE054625B13DA069
:1053B000A16A884704202CE700212046DDE912235A
:1053C000FEF736FF20B161A0A16A8847012020E7DF
:1053D0002046FEF74AFE054625B132A0A16A88475D
:1053E000042016E71498FBF73CF900225F4BCDE947
:1053F0000001FBF7B9F8CDE90201FBF753F90746C5
:10540000380C8DF81000380A8DF81100F8B28DF8BC
:105410001200002084F8310084F83500032304AA28
:1054200083212046FEF7CCFE054625B150A0A16A97
:1054300088470120EDE64FF47A711498B0FBF1F043
:1054400042F21071461806E02046FFF767FD012082
:10545000616A8847761E36B194F8310018B994F81D
:1054600035000028F0D02EB194F83100012801D188
:105470000020CEE63EB994F8310020B942A0A16ADE
:1054800088470520C5E694F83500012804D144A0DA
:10549000A16A88470620BCE647A0A16A8847072082
:1054A000B7E600006C6C636336383A206368697055
:1054B00020697320627573792E0A00006C6C636337
:1054C00036383A20636C656172206972712073749A
:1054D00061747573206661696C65642E0A00000052
:1054E0006C6C636336383A20736574207374616E34
:1054F000646279206661696C65642E0A00000000B0
:105500006C6C636336383A20736574206C6F72611B
:10551000206D6F64756C6174696F6E20706172616B
:105520006D73206661696C65642E0A006C6C636340
:1055300036383A20726561642072656769737465F4
:1055400072206661696C65642E0A00006C6C63638E
:1055500036383A20777269746520627566666572BE
:10556000206661696C65642E0A00000000402F40CF
:105570006C6C636336383A207365742074782066E7
:1055800061696C65642E0A006C6C636336383A207E
:1055900073656E642074696D656F75742E0A000002
:1055A0006C6C636336383A206972712074696D657A
:1055B0006F75742E0A0000006C6C636336383A20F5
:1055C000756E6B6E6F776E20726573756C742E0AD4
:1055D000000000002DE9FC4104460E46174698469F
:1055E00014B90220BDE8FC8194F83000012801D0F4
:1055F0000320F7E72046FEF738FD054625B114A045
:10560000A16A88470420EDE7300A8DF80000F0B267
:105610008DF80100380A8DF80200F8B28DF8030009
:105620004FEA18208DF8040008F0FF008DF80500FF
:1056300006236A4600212046FEF7C2FD054625B135
:1056400009A0A16A88470120CCE70020CAE7000032
:105650006C6C636336383A20636869702069732024
:10566000627573792E0A00006C6C636336383A20D9
:105670007265736574207374617473206661696CFC
:1056800065642E0A00000000F8B504460E46174671
:105690000CB90220F8BD94F83000012801D0032095
:1056A000F8E72046FEF7E1FC054625B10BA0A16A0C
:1056B00088470420EEE78DF800608DF80170022322
:1056C0006A468F212046FEF77BFD054625B109A0DD
:1056D000A16A88470120DDE70020DBE76C6C63638B
:1056E00036383A206368697020697320627573796F
:1056F0002E0A00006C6C636336383A2073657420A0
:1057000062756666657220626173652061646472A9
:10571000657373206661696C65642E0A0000000081
:105720002DE9FC4704460E4617469846DDF82890BA
:1057300014B90220BDE8FC8794F83000012801D09C
:105740000320F7E72046FEF790FC054625B118A098
:10575000A16A88470420EDE7300A8DF80000F0B216
:105760008DF80100380A8DF80200F8B28DF80300B8
:105770004FEA18208DF8040008F0FF008DF80500AE
:105780004FEA19208DF8060009F0FF008DF8070098
:1057900008236A4619462046FEF712FD054625B144
:1057A00009A0A16A88470120C4E70020C2E70000E1
:1057B0006C6C636336383A206368697020697320C3
:1057C000627573792E0A00006C6C636336383A2078
:1057D0007365742064696F206972712070617261F1
:1057E0006D73206661696C65642E0A0073B50446AA
:1057F0000CB902207CBD94F83000012801D00320B0
:10580000F8E72046FEF731FC054625B10AA0A16A5B
:1058100088470420EEE7012301AA40F236712046B2
:10582000FEF742FD054625B109A0A16A884701207F
:10583000E0E70020DEE700006C6C636336383A2056
:105840006368697020697320627573792E0A00009D
:105850006C6C636336383A207772697465207265C0
:10586000676973746572206661696C65642E0A00ED
:105870002DE9F84304460E4617469846DDF8209079
:1058800014B90220BDE8F88394F83000012801D053
:105890000320F7E72046FEF7E8FB054625B10EA0FA
:1058A000A16A88470420EDE78DF800608DF801704B
:1058B0008DF802808DF8039004236A468B212046E0
:1058C000FEF77EFC054625B109A0A16A88470120A4
:1058D000D8E70020D6E700006C6C636336383A20C6
:1058E0006368697020697320627573792E0A0000FD
:1058F0006C6C636336383A20736574206C6F726128
:10590000206D6F64756C6174696F6E207061726177
:105910006D73206661696C65642E0A002DE9FC4791
:1059200004460E4617469846DDE90A9A14B9022045
:10593000BDE8FC8794F83000012801D00320F7E788
:105940002046FEF792FB054625B111A0A16A8847C3
:105950000420EDE7300A8DF80000F0B28DF8010068
:105960008DF802708DF803808DF804908DF805A0F5
:1059700006236A468C212046FEF722FC054625B107
:1059800009A0A16A88470120D2E70020D0E70000E3
:105990006C6C636336383A206368697020697320E1
:1059A000627573792E0A00006C6C636336383A2096
:1059B000736574206C6F7261206D6F64756C6174B7
:1059C000696F6E20706172616D73206661696C65CC
:1059D000642E0A00F8B504460E460CB90220F8BD44
:1059E00094F83000012801D00320F8E72046FEF7A4
:1059F0003CFB054625B10AA0A16A88470420EEE7D2
:105A0000009601236A46A0212046FEF7D9FB0546F1
:105A100025B109A0A16A88470120E0E70020DEE760
:105A20006C6C636336383A20636869702069732050
:105A3000627573792E0A00006C6C636336383A2005
:105A4000736574206C6F72612073796D62206E755E
:105A50006D2074696D656F7574206661696C65642D
:105A60002E0A0000F8B504460E460CB90220F8BD17
:105A700094F83000012801D00320F8E72046FEF713
:105A8000F4FA054625B10DA0A16A88470420EEE787
:105A9000300A8DF80000F0B28DF8010002236A464A
:105AA0004FF4E8612046FEF7FFFB054625B109A04B
:105AB000A16A88470120DAE70020D8E76C6C6363AD
:105AC00036383A206368697020697320627573798B
:105AD0002E0A00006C6C636336383A207772697462
